:020000040800F2
:10000000280A00200D020008DF210008211C00083A
:10001000DD21000819030008D12D000800000000B0
:100020000000000000000000000000004F29000850
:10003000CD03000800000000052200085129000837
:1000400027020008270200082702000827020008EC
:1000500027020008270200082702000827020008DC
:1000600027020008270200082702000827020008CC
:1000700027020008270200082702000827020008BC
:1000800027020008270200082702000827020008AC
:10009000270200082702000827020008270200089C
:1000A000270200082702000827020008270200088C
:1000B000270200082702000827020008270200087C
:1000C000270200082702000827020008270200086C
:1000D000270200082702000827020008270200085C
:1000E000270200082702000827020008270200084C
:1000F000270200082702000827020008270200083C
:10010000270200082702000827020008270200082B
:10011000270200082702000827020008270200081B
:10012000270200082702000827020008270200080B
:1001300027020008270200082702000827020008FB
:1001400027020008270200082702000827020008EB
:1001500027020008270200082702000827020008DB
:1001600027020008270200082702000827020008CB
:1001700027020008270200082702000800000000EC
:1001800027020008270200082702000827020008AB
:10019000270200082702000827020008270200089B
:1001A00027020008270200081D0300082702000894
:1001B000270200082702000827020008270200087B
:1001C000270200082702000800000000270200089C
:1001D000270200082702000827020008270200085B
:1001E000270200082702000827020008270200084B
:1001F0002702000827020008DFF80CD000F07AF888
:1002000000480047D52D0008280A002006488047EE
:1002100006480047FEE7FEE7FEE7FEE7FEE7FEE7EB
:10022000FEE7FEE7FEE7FEE7212A0008F9010008E5
:100230002DE9F05F0546002092469B46884606461B
:10024000814640241BE0284641464746224600F0AE
:1002500041F853465A46C01A914110D311461846E8
:10026000224600F028F82D1A67EB01084F46224677
:100270000120002100F01FF817EB00094E41201E5D
:10028000A4F10104DFDC484631462A464346BDE876
:10029000F09F40EA01039B0703D009E008C9121F41
:1002A00008C0042AFAD203E011F8013B00F8013B30
:1002B000521EF9D27047202A04DB203A00FA02F1DC
:1002C000002070479140C2F1200320FA03F3194344
:1002D00090407047202A04DB203A21FA02F00021E6
:1002E000704721FA02F3D040C2F120029140084346
:1002F00019467047064C074D06E0E06840F00103E0
:1003000094E8070098471034AC42F6D3FFF778FF23
:1003100038B3030858B30308FEE70000014800F0B3
:100320006BB900BF20000020B0B50568DDF810C033
:100330006C6C4CEA034304F0404423436B64EA636F
:100340004268B2F5403F1CBFE960B0BD8068CAB2E8
:1003500001F47F4C01F47F0E032806D8DFE800F09B
:100360002D02131E21F07F4127E04FF4704000EA78
:100370001140154940EA121001EA1E310843F021EC
:1003800001EA1C2118E00F494FF4FC6000EA5C1000
:1003900001EA1E2141EAD20101430EE04FF4004080
:1003A00000EA1140064940EAD20001EA5E21084312
:1003B0004FF4787101EA9C110143A963B0BD00BFFD
:1003C00000FC7F0000F8FF0000FF0F0070472DE9E0
:1003D000F0410B680268012B1ED1D1E901E7D1E998
:1003E0000365D1E9058CD1E90734496A22F4F84262
:1003F0001A43224311434268016047F6FF7122EA23
:10040000010141EA0E0139433143294341EA080120
:1004100041EA0C01416019E047F6FF7301F114084D
:1004200022EA030CD1E90132D1E903E498E8E001C2
:10043000496A43EA0C031A4342EA0E0222432A4362
:1004400032433A4342EA0802114301600020BDE80A
:10045000F081426942EA4101416100207047C0B524
:1004600000220092D1E900C3D1E9022E6FF01F01F2
:1004700001EB421143EA0C02114341EA4E21009183
:1004800000990161002001B080BD0000F0B58368D3
:10049000012A28D12B4A284F1A4091E82810D1E987
:1004A000034ED1E9056107EB0434013BFF312243E0
:1004B000234C04EB06542243C46882606FF00F02A1
:1004C00002EB051204F0704423431A436FF0FF035C
:1004D00003EB0C231A43194B03EB0E431A4342EA76
:1004E0000161C16025E0D1E900C26FF00F05D1E9DB
:1004F00002E403F0704305EB0212ACF101052B435B
:100500001A436FF0FF0303EB0E231A430A4B03EB6E
:1005100004330A4C1A430B6904EB0343084C1A4397
:100520004B69896904EB0353FF311A4342EA0161C5
:1005300081600020F0BD00BF00F0FFFF0000FFFF62
:100540000000F0FFFF0F0FFF7047000090F85030E1
:100550000222012B4BD0F0B501EB410380F8512072
:10056000012200EBC30380F8502003F1240E03F1B5
:10057000200C9EE83040D3E90C63A4F1090244EA60
:1005800005444FEA0E67022A44EA065438BF0EF0CB
:100590007F4744EA4353002943EA070403680FD026
:1005A000D969144D012A01EA050141EA0401D96122
:1005B000DCF8001019619CBF2EF07F4119620EE03B
:1005C000596A0C4D012A01EA050141EA0401596208
:1005D000DCF8001099619CBF2EF07F4199620022E7
:1005E000012180F8502080F85110BDE8F040D0B2D1
:1005F000704700BFF0FFCC0070B504460068466845
:10060000056816F0010F18BF15F480717CD1B00693
:100610001AD515F4005017D02068016821F4005154
:10062000016020218160E169606D40F002000029D5
:1006300060654FF0000084F850004FF0040084F82B
:10064000510001D02046884730071AD515F40060C4
:1006500017D02068016821F40061016008218160E1
:10066000E169606D40F00400002960654FF0000012
:1006700084F850004FF0040084F8510001D0204667
:10068000884770070CD515F4806009D02068016890
:1006900021F48061016004218160204600F085F82A
:1006A000B00717D515F4007014D02068016821F444
:1006B0000071016002218160A169606D60650020A8
:1006C000002984F850004FF0010084F8510001D057
:1006D00020468847F00658BF70BD15F480502AD0D8
:1006E0002068016821F48051016010218160606DF3
:1006F0006065002084F85000012084F851002046F5
:10070000BDE87040FFF720BF016821F480710160EF
:10071000616D41F00101616501218160002084F873
:100720005000042084F85100E16900293FF46FAFC4
:10073000204688476BE770BD10B5044698B394F81F
:10074000510028B9002084F85000204600F02EF80F
:10075000022084F8510020680168626821F4403169
:1007600011430160416BA26821F00701114343F678
:10077000FF724163016C9143E26811430164416B74
:10078000226921F4801141EA02514163416B62699F
:1007900021F4001141EA42514163002001216065CA
:1007A00084F8511010BD012010BD70470068084941
:1007B000884218BF704781B00648016841F40001C3
:1007C0000160006800F400000090009801B07047DC
:1007D00000B00240303802401CB590F850C00446CA
:1007E0000220BCF1010F15D0DDF810C084F85100D3
:1007F000012084F850002046CDF800C0FFF794FD9A
:100800002068016841F40C510160016841F0010168
:1008100001600020C0B202B010BD0000B0B50446B7
:1008200000F0DAF805468548611C007818BF0444DA
:1008300000F0D2F8401BA042FAD3B0BD2DE9F84F2A
:100840005A4A4FF00A084FF0000C4FF001094FF0E0
:10085000000A9042564A08BF4FF0090802444FEA86
:10086000B223092B38BF4FEAB2280022102A08BF52
:10087000BDE8F88F0C6809FA02F6344200F08F8068
:100880004D6845F01004122C10D10AF01C040F23FF
:1008900003FA04FB494B03EA520707443D6A0B691C
:1008A00025EA0B05A3402B433B624D6807680324F0
:1008B00005F00303122D04FA0CF403FA0CF327EAF3
:1008C00004076FEA040443EA0703036014D809FA33
:1008D00005F313F0061F1FBF83682340CF6807FA94
:1008E0000CF71FBF3B438360C5F3001393401FBF4A
:1008F0004768B7433B434360C36823408C6804FAAE
:100900000CF42343C360EB0049D5DF4B0AF00C0520
:100910000F27AF4008FA05F51C461B6843F48043D7
:1009200023602368234C03F48043A346009322F002
:1009300003032344009C224CA6461C59BC432C4371
:1009400043F80E40DBF800304D6843EA060415F426
:10095000803F08BF23EA060415F4003FCBF80040AF
:10096000DBF8043043EA060408BF23EA060415F462
:10097000801FCBF80440DBF8083043EA060408BFC8
:1009800023EA06040C4B15F4001FCBF808401F4661
:100990001B6843EA060408BF23EA06043C600CF126
:1009A000020C0AF1040A013260E700BF0024024091
:1009B0000000FEBF003C01400C3C0140FCFFFF7FFB
:1009C00008FCFFFF4269514041617047002A08BF9F
:1009D000090481617047000018488068704700BFB3
:1009E00016480178826811448160704780B5032001
:1009F00000F0BEF9002000F005F800F049F90020F1
:100A000080BD000070B50D4E04464FF47A71307809
:100A1000B1FBF0F00A490968B1FBF0F001F090F881
:100A200001250F2C08D838B94FF0FF30214600229D
:100A3000002500F07BF97460284670BD000000209E
:100A40000C000020F8B50E4690F8A010044615469C
:100A50000220012918D084F8A10034200127314652
:100A6000342205FB004084F8A0703830FFF711FCF9
:100A7000204631462A4601F0A9F920684762002045
:100A800084F8A00084F8A170C0B201B0F0BD0000ED
:100A9000B0B50446002868D094F8A10028B9002019
:100AA00084F8A000204600F065F80220304D84F85C
:100AB000A1002068816921F070418161D4E901C2FF
:100AC000D4E9033142EA0C021A431143826911430B
:100AD000816182682A408260D4E90523816843EA03
:100AE000024211438160C1682940C160D4E9071204
:100AF000C36842EA01411943C160016929400161AB
:100B0000D4E90912036942EA0141194301614169CB
:100B100029404161D4E90B12436942EA014119437A
:100B2000416194F8362094F83510C36A03F07F438E
:100B30001204C36242EA012194F834201143C26ACC
:100B40001143C162416B41F004014163416B41F0CB
:100B500002014163816941F00101816100200121AD
:100B6000C4F8A40084F8A110B0BD0120B0BD00BF3E
:100B700000F800F02DE9F04786B00068414DA8422A
:100B80007DD14148414F4FF0020801AC4FF00009C0
:100B90004FF0030A0E26016841F080610160214692
:100BA000006800F0806001900198CDF80880702006
:100BB000019005F52840CDF80C90CDF810A00596D1
:100BC000B84740F21560CDF808802146019005F540
:100BD0003840CDE9039A0596B8474FF48060CDF8C8
:100BE00008802146019005F52C40CDE9039A059631
:100BF000B8474FF20C30CDF808802146019005F53A
:100C00003440CDE9039A0596B84741F60800CDF87F
:100C100008802146019005F51840CDE9039A059614
:100C2000B8474FF4C650CDF808802146019005F52D
:100C30003040CDE9039A0596B8478020CDF808806A
:100C40002146019005F52040CDE9039A0596B84765
:100C50004020CDF808802146019005F52440CDE9DB
:100C6000039A0596B8474FF44070CDF808802146A6
:100C7000019005F51C40CDE9039A0596B84706B0EA
:100C8000BDE8F08700680140443802403D08000894
:100C90001CB55A48016841F080510160016801F0BB
:100CA000805101910199416841F48041416040685F
:100CB00000F4804000900098032000F059F8144C94
:100CC0006FF00B0000210022A0476FF00A00002106
:100CD0000022A0476FF0090000210022A0476FF01A
:100CE000040000210022A0476FF003000021002231
:100CF000A0476FF0010000210022A0474FF0FF3015
:100D000000210022234602B0BDE81040184700BF72
:100D10002D0D000800F01F010122400902FA01F127
:100D2000014A42F82010704700E100E010B5164B70
:100D30001B68C3F3022E0EF1040CAEF103048EF017
:100D40000703BCF1070F4FF0010C38BF0024042B40
:100D500028BF04230CFA03F3013B19400CFA04F3F7
:100D6000013BA1401A401143BDE8104001F038BAE0
:100D700005494FF6FF030A681A4060F30A22034848
:100D800010430860704700BF0CED00E00000FA055A
:100D9000BCB51A481A4D016841F0805101600068E5
:100DA00000F0805001900198286840F4803028605D
:100DB000FFF712FE0446686810F4803F06D1FFF783
:100DC0000BFE001BB0F57A7FF5D910E0286840F4DF
:100DD00000302860FFF700FE0446686810F4003F0A
:100DE00007D1FFF7F9FD001BB0F57A7FF5D9032095
:100DF00000E00020C0B202B0B0BD00BF40380240E9
:100E0000007000402DE9F84FD0F80090D14D044615
:100E100019F0010F02D14FF0000A0BE0286820F40E
:100E200000002860606B29680143B0FA80F04FEA47
:100E3000501A29605FEA093002D44FF0000814E02C
:100E4000D5F88410E06B21F44011B0F5801F41EA21
:100E50000001C5F8841004D14FF000084FF0010ADA
:100E600003E0B0FA80F04FEA50185FEAC92012D5CB
:100E7000D5F88410206C21F44001B0F5800F41EAD0
:100E80000001C5F8841002D14FF0010A03E00028E8
:100E900008BF4FF00108B04F19F0200F4E46AB4687
:100EA00067D0A86BAD4E40F08050A863A86B00F0EF
:100EB000805000900098B85940F48070B851FFF706
:100EC0008BFD0546B85910F4807F05D1FFF784FDEE
:100ED000401B6428F6D92AE25846DBF8680010F473
:100EE00040702ED0216B01F44071884229D0DBF88C
:100EF0006800DBF868105A4641F4803120F44070F5
:100F0000CBF86810DBF8681021F48031CBF868105A
:100F1000CBF86800DBF8680010F0010F11D0FFF784
:100F20005BFD054641F288365846DBF8680010F054
:100F3000020F06D1FFF750FD411B0320B142F3D948
:100F4000F8E1206B8649DBF800205D4600F4407331
:100F5000014022F4F8126FF31F30B3F5407F08BF51
:100F60000A43CBF80020DBF868100843CBF8680090
:100F70002668F0060BD5D5F8840020F08070C5F8FF
:100F80008400A06BD5F884100843C5F88400700471
:100F900007D5D5F88800616E20F440300843C5F8C5
:100FA0008800300407D5D5F88800A16E20F44020D1
:100FB0000843C5F88800F00307D5D5F88800E16E2E
:100FC00020F440100843C5F88800B00307D5D5F8D1
:100FD0008800216F20F440000843C5F8880070069F
:100FE00007D5D5F88800616C20F003000843C5F8E8
:100FF0008800300607D5D5F88800A16C20F00C00D9
:101000000843C5F88800F00507D5D5F88800E16CDD
:1010100020F030000843C5F88800B00507D5D5F8A2
:101020008800216D20F0C0000843C5F888007005D5
:1010300007D5D5F88800616D20F440700843C5F8E5
:101040008800300507D5D5F88800A16D20F44060F0
:101050000843C5F88800F00407D5D5F88800E16D8D
:1010600020F440500843C5F88800B00407D5D5F8EF
:101070008800216E20F440400843C5F888007002C3
:1010800007D5D5F88800A16F20F080600843C5F827
:101090008800B0020DD5D5F88800E16F20F000601F
:1010A000B1F1006F40EA0100C5F8880008BF4FF0B9
:1010B000010816F4802F07D0D5F88800616F20F062
:1010C00040700843C5F88800300208D5D5F888007C
:1010D000D4F8801020F080500843C5F888007001D3
:1010E00008D5D5F88800D4F8841020F000500843C3
:1010F000C5F88800300108D5D5F88400D4F88810E8
:1011000020F000700843C5F8840009F08070F100F9
:1011100008D5D5F88410D4F88C2021F080611143D3
:10112000C5F8841028B9BAF1000F02D1B6F1007FDA
:101130007DD1386820F080603860FFF74DFC0546AF
:10114000386810F0006F0DD0FFF746FC401B642894
:10115000F6D9ECE008380240003802400038FEFFC3
:10116000FFFCFF0F20685D4610F0010F0FD0616B90
:1011700069B9E96FEA6F01F4403102F0706211431E
:10118000D4E9012341EA821141EA0371E9670103CD
:1011900003D5E16BB1F5801F05D0C1021AD5216CD2
:1011A000B1F5800F16D1E96FEA6FE36801F44031C1
:1011B00002F0E0421143626841EA821141EA0361B0
:1011C000E967D5F88410626A21F01F01013A1143E2
:1011D000C5F88410C1010DD5E96FEA6F236901F0EC
:1011E000706102F0E0421143626841EA821141EA13
:1011F0000341E967800109D5231D0FCB1B0443EA96
:10120000801040EA026040EA0170E867386840F008
:1012100080603860FFF7E0FB0546386810F0006F2B
:1012200005D1FFF7D9FB401B6428F6D97FE016F003
:10123000080008BFB8F1000F7BD0386820F080505C
:101240003860FFF7C9FB0546386810F0005F05D02D
:10125000FFF7C2FB401B6428F6D968E0206810F451
:10126000002F01D0E16B19B1C1021ED5216CE1B98B
:10127000DBF88010DBF8802001F4403102F0E0421E
:101280001143D4E9052341EA821141EA03616FF079
:10129000FF03CBF88010DBF88410A26A03EB022274
:1012A00021F4F8511143CBF88410810214D5E16F79
:1012B000B1F1006F10D1DBF88010DBF88020236AD9
:1012C00001F0706102F0E0421143626941EA82116B
:1012D00041EA0341CBF88010000718D5DBF8800005
:1012E000DBF88010E26900F0706001F440310843DF
:1012F000616940EA811040EA0270CBF88000DBF8B7
:101300008400E16A20F440300843CBF88400386858
:1013100040F080503860FFF75FFB0446386810F0FB
:10132000005F06D1FFF758FB001B6528F6D30320AA
:1013300000E00020C0B201B0BDE8F08F2DE9F0411F
:1013400088460446002800F08B80474FD7F80004F9
:1013500000F00F0040450DD2D7F8000420F00F0038
:1013600040EA0800C7F80004D7F8000400F00F00B6
:10137000404575D1206810F0020F11D0410742BFDF
:10138000B96841F4E051B960010742BFB96841F45E
:101390006041B960B968A26821F0F0011143B960F9
:1013A000C00727D06068012804D1396811F4003FD4
:1013B00008D155E03968022802D1890102D44FE0F2
:1013C00089074DD5B96821F003010843B860FFF7DC
:1013D00003FB064641F28835B868616800F00C00EE
:1013E000B0EB810F06D0FFF7F7FA801BA842F3D9C4
:1013F000032436E0D7F8000400F00F0040450DD973
:10140000D7F8000420F00F0040EA0800C7F80004F5
:10141000D7F8000400F00F00404521D1206810F0FB
:10142000040F05D0B968E26821F4E0511143B960B6
:10143000000706D5B868216920F4604040EAC10081
:10144000B86000F033F8B968084A0024C1F303110A
:10145000515CC840124908600020FFF7D3FA00E051
:101460000124E0B2BDE8F08100380240D22E00082D
:101470000B480068704700BF09480A490A4A0068DB
:101480000968C1F38221515CC8407047044805498E
:10149000054A00680968C1F34231515CC840704791
:1014A0000C00002008380240E22E000810B5E74C7E
:1014B000606800F00C00082804D0042814BF10480D
:1014C000104810BD226820680E49002310F4800FD8
:1014D00002F03F0204BF42F20041C0F2F401206872
:1014E000C0F38810A1FB0001FEF7A2FE21680222D2
:1014F000C1F3014102EB4101B0FBF1F010BD00BFAF
:101500000024F40040787D012DE9F84304460028CA
:1015100000F043812078CC4ECC4FC007B14650D06C
:10152000786800F00C00042818D0786800F00C00EF
:10153000082803D1386810F4800F0FD16068A0B17B
:10154000B0F5803F06D03168B0F5A02F25D141F429
:1015500080203060306840F4803024E0306810F43F
:10156000003F2ED0606860BB17E1306820F4803007
:101570003060306820F480203060FFF72DFA054697
:10158000D9F800004E4610F4003F1AD0FFF724FAB5
:10159000411B03206429F3D900E121F4803030603D
:1015A000306820F480203060FFF716FA0546306876
:1015B00010F4003F05D1FFF70FFA401B6428F6D95D
:1015C000DAE02078800730D5786810F00C0F1DD055
:1015D000786800F00C00082804BF386810F4800F09
:1015E00014D0E1683068002900F0858040F00100E7
:1015F0003060FFF7F1F90546306810F0020F0DD1A9
:10160000FFF7EAF9401B0228F6D9B5E0306810F080
:10161000020F1CBFE068012840F0BF8030682169DC
:1016200020F0F80040EAC10030602078000722D5A1
:101630006169386F79B140F001003867FFF7CCF984
:101640000546386F10F0020F15D1FFF7C5F9401BA2
:101650000228F6D990E020F001003867FFF7BCF9C6
:101660000546386F10F0020F05D0FFF7B5F9401BA3
:101670000228F6D980E02078400740F18680F86B98
:1016800010F0805F0BD1F86B4FF0010840F08050F4
:10169000F863F86B00F080500090009801E04FF084
:1016A00000086B4E484659F8060010F4807F14D1AC
:1016B00059F8060040F4807049F80600FFF78CF9ED
:1016C0000546484659F8060010F4807F05D1FFF71B
:1016D00083F9401B6428F4D94EE0A068F8B10128D2
:1016E00005D0F96E052832D141F00400F866F86E95
:1016F00040F0010031E020F001003060FFF76CF9AC
:1017000005464846D9F8000010F0020F3FF48DAFAF
:10171000FFF762F9411B03200229F2D93EE0F86E7F
:1017200020F00100F866F86E20F00400F866FFF77C
:1017300053F9054641F28836F86E10F0020F1DD0BD
:10174000FFF74AF9411B0320B142F5D926E021F009
:101750000100F866F86E20F00400F866FFF73CF927
:10176000054641F28836F86E10F0020F06D1FFF7F9
:1017700033F9401BB042F6D903200FE0B8F1000F57
:101780001EBFF86B20F08050F863A669002E59D078
:10179000786800F00C00082804D10120C0B201B024
:1017A000BDE8F083D9F8000020F08070C9F800008F
:1017B000FFF712F90546022E0CD1D9F800004E466B
:1017C00010F0007F13D0FFF707F9411B0320022917
:1017D000F3D9E3E74846D9F8000010F0007F31D094
:1017E000FFF7FAF8411B03200329F3D3D6E704F1EE
:1017F0001C03B4460FCBD4E90B650843D90340EA78
:1018000082104FF6FF72914340EA0660A1F58031E5
:10181000084340EA05703860DCF8000040F0807052
:10182000CCF80000FFF7D8F804464846D9F8000085
:1018300010F0007F06D1FFF7CFF8011B032002292B
:10184000F3D9ABE70020A9E7003802400438024092
:101850000038FEFFB0B50D460446C8B194F82C0020
:1018600028B9002084F82D00204600F013F802204B
:10187000211D84F82C002068FEF7A9FDD4E90002A0
:101880002946FEF703FE012084F82C000020B0BD9D
:101890000120B0BD704710B590F82C2004460220FE
:1018A000022A08D084F82C002068FEF7D2FD01201F
:1018B00084F82C000020C0B210BDB0B50D4690F8E1
:1018C0002C100446022002290ED084F82C00294650
:1018D0002068FEF7C4FD2868012102284FF00000AF
:1018E00008BF052184F82C10C0B2B0BDB0B50446C5
:1018F000E0B10020A06294F85D1021B984F85C008A
:10190000204600F049F8022084F85D002068016854
:1019100021F040010160D4F80CE0BEF5E06F07D97A
:101920004FF0000CBEF5706F05D106E00120B0BD90
:101930004FF4805C01D00023A362236B2BB90123F9
:10194000BEF5E06F88BF02232363D4E90132D4E9F6
:1019500004151A431143A269294302F40073194381
:10196000E3691943236A1943A36A194304230160F5
:1019700003EA12424CEA0E011143626A636B11439F
:1019800019434160C16921F40061C1610020012156
:10199000206684F85D10B0BD01681148814218BF0F
:1019A0007047FEB50F4900F5E6300A6842F4804200
:1019B0000A60096801F480410191019902210291B4
:1019C0004FF460410191002103910321049105210D
:1019D000059101A9FEF732FF06B0BDE880407047CF
:1019E00000380040403802402DE9F843044690F8A2
:1019F0005C001D4616468846012801D102208DE074
:101A00004FF0010984F85C90FEF7E6FF074694F872
:101A10005D0001287CD1B8F1000F4FF0010018BF24
:101A2000002E76D0032084F85D0000202066E68733
:101A3000C4F83880A6872064A4F84400C4E91300E1
:101A4000A4F846006E1CA1682068B1F5004F02BFE3
:101A5000016841F480410160016811F0400F02BF4C
:101A6000016841F040010160E068B0F5E06F35D9F0
:101A700013E02068816811F0020F08D16EB1002DCB
:101A800050D0FEF7A9FFC01BA84206D34AE038F8A1
:101A9000021BC160E08F0138E087E08F0028E8D1A9
:101AA0001FE02168886810F0020F07D1B6B1CDB3EE
:101AB000FEF792FFC01BA84210D333E0E28F4FF62F
:101AC000FE70022A03D338F8022BCA6003E018F82C
:101AD000012B01300A73E18F0844E087E08F002872
:101AE000DFD1204629463A4600F05AFE08B12020B0
:101AF0002066A06838B9002000902068C168009175
:101B0000806800900098206E002818BF012000E037
:101B10000220002184F85C1084F85D90C0B201B00E
:101B2000BDE8F0830320F4E70D4904280A6822F099
:101B3000040308BF42F004030B60704770470000C5
:101B4000411E0020B0EB116F1CBF01207047044AFA
:101B5000F023516003490B700721906011607047BA
:101B600010E000E023ED00E0FFF7E8BF10B5044609
:101B7000A8B194F8690028B9002084F868002046CC
:101B800000F026F8242084F869002068016821F01C
:101B900001010160204600F0F7FF012801D101207A
:101BA00010BD606A10B1204600F060FF20684168F7
:101BB00021F490414160816821F02A01816001682F
:101BC00041F0010101602046BDE8104000F0B8BFBF
:101BD00001681148814218BF7047FEB50F4900F5F2
:101BE00070400A6842F010020A60096801F01001B2
:101BF00001910199022102914FF4C06101910021EC
:101C00000391032104910721059101A9FEF716FE16
:101C100006B0BDE8804070470010014044380240E3
:101C2000FEE7000010B5684C00200321A047022009
:101C30002721A0470320EF21A04704207B21A047B4
:101C400005208C21A04706208021A047072097214E
:101C5000A04708201B21A04709200121A0470A20F6
:101C60002521A0470B202021A0470C202021A047A0
:101C70000D200D21A0470E202021A0470F2020215C
:101C8000A04710204021A04711203F21A04712204B
:101C90003121A04713204021A04714200821A0474C
:101CA00015200621A04716200821A04717200A2149
:101CB000A04718203521A0471920FF21A0471A204E
:101CC0000021A0471B208021A0471C200021A04705
:101CD0001D200021A0471E200021A0471F203F21DA
:101CE000A04720208521A04721208021A047222035
:101CF0008021A04723208021A04724200021A04745
:101D000025208021A04726208021A04727200C21C4
:101D1000A04728202B21A04729202321A0472A20A3
:101D20002821A0472B202821A0472C203021A04784
:101D30002D203B21A0472E200021A0472F20082145
:101D4000A04730200021A04731200021A0473220A9
:101D50000021A04733200021A04734200021A047C4
:101D600035200021A04736200021A0473720002140
:101D7000A04738200021A04739200021A0473A2061
:101D80000021A0473B200021A0473C200021A04784
:101D90003D200021A0473E200021A0473F200021F8
:101DA000A04740200021A04741208E21A04742208B
:101DB000A021A04743200021A047442029212246FA
:101DC000BDE81040104700BFE527000870B5006867
:101DD000D1F804C000EBC213D0F80CE0D3F888208F
:101DE00002F47042C3F88820414A02EA0E02D1F898
:101DF00000E0C46802EB0C42C4F30B4474440134A9
:101E00002243C3F88820CA68C468D3F88C5005F40C
:101E100070456FF3DF24C3F88C5022448C68C0688F
:101E20006FF3DF202044013040EA0240C3F88C0009
:101E3000D3F8940020F00700C3F894000869C3F8B1
:101E40009400072891F8325091F831408A69D3F80C
:101E50009C604FF00006C3F89C604FEA054545EAD8
:101E6000042444EA026291F8304042EA040240F25B
:101E70000774C3F89C20D3F8982022F0FF02C3F81F
:101E800098204A69C3F89820D3F8A02022EA0402D7
:101E9000C3F8A020D1E9072442EA0402C3F8A02035
:101EA000D3F8AC20C3F8AC60ACEB0E064A6AC3F8BA
:101EB000AC2003F184039ABF0E4A52F8200001209F
:101EC000DA6A02F0E022DA628A6A4243704303303F
:101ED00040EA024040F2FF72D862186B90431863E8
:101EE000C86A1863186840F00100186070BD00BF30
:101EF0000000FF0FF02E000880B51048104A0021A6
:101F00000123C0E90021C0E90231C0E90E13C0E994
:101F10001011C0E91211FEF70FFC18B10948412158
:101F200000F057FF05480121FEF710FB28B10548D6
:101F30004621BDE8804000F04CBF80BD200000205D
:101F400000B0024010B303082DE9F04F85B04448BB
:101F5000454E01224FF480580127016841F01001DD
:101F60000160016801F0100100910099016841F4DD
:101F700080710160016801F480710091009901682D
:101F800041F020010160016801F0200100910099F9
:101F9000016841F080010160016801F08001009159
:101FA0000099016841F004010160016801F0040139
:101FB00000910099016841F001010160016801F0A0
:101FC000010100910099016841F040010160016840
:101FD00001F0400100910099016841F002010160A7
:101FE000016801F0020100910099016841F00801C7
:101FF00001604FF48051006800F0080000900098E4
:102000001848A0F5006583462846B04758464FF467
:10201000006101224FF40069B04758468021002238
:102020004FF0800A0024B047CDE90087DFF85887D9
:102030006E462846CDE902743146C04758463146BF
:10204000CDE90097CDE90244C04758463146CDE975
:1020500000A7CDE90274C04705B0BDE8F08F00BF0E
:1020600030380240000C0240CD09000810B58EB097
:1020700027482849002440F25A3203234FF07B0CB2
:1020800040F2E71EC0E90014C0E90244C0E904427E
:10209000C0E9063C262140F2DE2240F2E5134FF46F
:1020A000397C016242628362C0F82CC0C0F830E023
:1020B000848680F83640FEF7EBFC18B116484A21BA
:1020C00000F087FE4FF4A070F0210122CDE901401D
:1020D0000394049105927F22CDE906244FF4806297
:1020E0000892052209924FF05042CDE90A20084893
:1020F0000C9101A90022ADF834408DF83640FEF76E
:10210000A1FC18B104485E2100F063FE0EB010BDC2
:10211000780000200068014024B3030870B513481C
:10212000134A4FF4827C00234FF4E0614FF0020E1B
:1021300001244FF400753026C0E9002CC0E90231BB
:102140000721C0E904E4C0E90656C0E90833C0E944
:102150000A31C0E90C33FFF7C9FB28B105A04721BC
:10216000BDE8704000F035BE70BD00BF54010020D6
:10217000003800402E2E2F436F72652F5372632F4D
:102180007370692E6300000080B50D480D4A00236E
:102190004FF4E1314FF00C0CC0E90833C0E90021E5
:1021A000C0E90233C0E9043CC0E90633FFF7DEFCB6
:1021B00028B105A04421BDE8804000F00ABE80BDE2
:1021C000B8010020001001402E2E2F436F72652FA2
:1021D0005372632F75736172742E6300FEE770474C
:1021E00010B5074C054B00F00F02002804444FEADD
:1021F0000110B8BFD418207010BD00BF14ED00E06E
:1022000000E400E0704700002DE9F04F89B0FD4D7B
:102210000121DFF874A56C460226286840F02000F2
:102220002860286800F0200000900098286840F09E
:1022300020002860286800F020000090009828689E
:1022400040F020002860286800F0200000900098EE
:10225000286840F020002860286800F020000090E6
:102260000098286840F020002860286800F02000CE
:1022700000900098286840F020002860286800F04E
:10228000200000900098286840F02000286028680E
:1022900000F0200000900098286840F0200028609E
:1022A000286800F0200000900098286840F0200086
:1022B0002860286800F0200000900098286840F00E
:1022C00020002860286800F020000090009828680E
:1022D00040F040002860286800F04000009000981E
:1022E000286840F040002860286800F04000009016
:1022F0000098286840F008002860286800F008006E
:1023000000900098286840F008002860286800F0D5
:10231000080000900098286840F0080028602868AD
:1023200000F0080000900098286840F0080028603D
:10233000286800F0080000900098286840F010001D
:102340002860286800F0100000900098286840F08D
:1023500010002860286800F010000090009828689D
:1023600040F010002860286800F0100000900098ED
:10237000286840F010002860286800F010000090E5
:102380000098286840F010002860286800F01000CD
:1023900000900098286840F010002860286800F03D
:1023A000100000900098286840F01000286028680D
:1023B00000F0100000900098286840F0100028609D
:1023C000286800F0100000900098286840F0100085
:1023D0002860286800F0100000900098286840F0FD
:1023E00008002860286800F008000090009828681D
:1023F00040F008002860286800F00800009000986D
:10240000286840F008002860286800F00800009064
:102410000098286840F080002860286800F080005C
:1024200000900098286840F040002860286800F07C
:10243000400000900098286840F04000286028681C
:1024400000F0400000900098286840F004002860E8
:10245000286800F0040000900098286840F02000F0
:102460002860286800F0200000900098286840F05C
:1024700040002860286800F040000090009828681C
:1024800040F040002860286800F04000009000986C
:10249000286840F080002860286800F080000090E4
:1024A0000098286840F010002860286800F01000AC
:1024B00000900098286840F010002860286800F01C
:1024C00010000090009802910220019003900C20CF
:1024D0000490AC480091214600F540698346484687
:1024E000D047484621460096D04704202146009018
:1024F0004846D0470820214600904846D047102043
:10250000214600904846D04720202146009048466A
:10251000D0474FF48050214600904846D0474FF4B2
:102520000050214600904846D0474FF48040214655
:102530004FF4804700904846D0474FF40040214672
:1025400000904846D04701200BF580582146009066
:102550004046D0470226404621460096D047009785
:102560000BF5806721463846D0474FF4004021469E
:1025700000903846D0470120214600903846D04789
:10258000384621460096D04780200BF5006621464C
:1025900000903046D0474FF480702146009030467E
:1025A000D0474FF40070214600903046D0474FF49A
:1025B000806B30462146CDF800B0D0474FF4006024
:1025C000214600903046D0474FF48050214600907D
:1025D0003046D0474FF40050214600903046D04757
:1025E0004FF48040214600903046D0474FF40040E1
:1025F000214600903046D0474FF48070214600F0CD
:1026000003B800BF3038024000903846D0474FF43E
:102610000070214600903846D04738462146CDF814
:1026200000B0D047402021460090564800F5A05702
:1026300083463846D0471020214600904046D04778
:102640002020214600904046D0470120214600909E
:102650005846D0474FF4006021464FF4006B00907D
:102660004846D0474FF40040214600904046D047AE
:102670004FF48070214600904046D047802021468C
:1026800000903846D0470220214600903046D0477F
:102690000127304621460097D047A868002604222B
:1026A0004FF4C07140F00100A860A868374D00F0F9
:1026B000010005F11403009000983548C5E90007B2
:1026C0001020AE60EA602861402083E843084FF4A0
:1026D00000506E620221A86207200091CDE901023C
:1026E000CDE90301CDE9051169462846FFF7B2F8A7
:1026F000284C012008214FF6FF7201272060C4E911
:10270000011028462146E660FFF7D7F8089707969C
:1027100021480899484301E0079801380790079835
:102720000028F9D1194D1D4F4FF0080A02204FF033
:1027300001084FF0000921464FF6FF72C4E9000A74
:10274000C4E902892846B8470320042621464FF6EB
:10275000FF72C4E9000A2846C4E90269B84740F29A
:102760003120C4E9006A21464FF6FF72C4E90280B5
:102770002846B847284640F26A51FFF78CF809B05E
:10278000BDE8F08F000802403D080008200100204D
:10279000400100A010000020A0860100BB18000826
:1027A00070B515460E464FF4C051044632462B46CE
:1027B00000F044F868B9204631462A4600F088F80F
:1027C00038B920464FF4C06132462B4600F036F847
:1027D00030B1206E40F0200020660320C0B270BDF2
:1027E0000020FBE7BCB5134C8DF806108DF80700F0
:1027F0004FF4805100222046FEF7E8F800BF0E4D4E
:102800000DF107010122FF2300BF00BF00BF00BF81
:102810002846FFF7E9F80DF1060128460122FF23BB
:10282000FFF7E2F820464FF480510122FEF7CEF880
:10283000BCBD00BF00040240540100202DE9FC4152
:10284000984616460F460446551C20688168394252
:1028500039D0B7F5C06F02BF017B8DF807109DF826
:102860000710002DF1D036B1FEF7B6F8A0EB080046
:10287000B042EAD32068416821F0E001416061681C
:10288000B1F5827F0AD1A168B1F5004F18BFB1F54B
:10289000806F03D1016821F040010160A16AB1F5A8
:1028A000005F08D101684DF6FF72114001600168B8
:1028B00041F400510160002084F85C00012084F89C
:1028C0005D00032000E00020C0B202B0BDE8F0814E
:1028D000F8B515460E4604464F1C2068816811F075
:1028E000800F30D0002FF8D02EB1FEF775F8401BC6
:1028F000B042F2D32068416821F0E0014160616894
:10290000B1F5827F0AD1A168B1F5004F18BFB1F5CA
:10291000806F03D1016821F040010160A16AB1F527
:10292000005F08D101684DF6FF7211400160016837
:1029300041F400510160002084F85C00012084F81B
:102940005D00032000E00020C0B201B0F0BD704780
:1029500080B5FEF745F8BDE88040FFF705B90000F7
:1029600070B5B6B02C4801240225016841F08051B1
:102970000160006800F080500090009827480168CE
:1029800041F440410160006800F44040009000982C
:102990004FF480302A904FF4800029942F95309086
:1029A000192031904FF4D870CDE9320529A834951B
:1029B000FEF7AAFDFEF7ECF90F2000260721CDE96E
:1029C00024054FF4A050269627904FF4805028906D
:1029D00024A8FEF7B3FC48200090D820CDE90505D7
:1029E0006846CDE90756CDE90A461196FEF70AFA80
:1029F000FEF73EFD4FF47A71B0FBF1F0FFF7A0F85F
:102A00000420FFF791F84FF0FF3000210022FEF77D
:102A10008DF936B070BD00BF4038024000700040F4
:102A200010B50E480F4CD0F8801041F47001C0F87A
:102A300080100B490A6842F001020A6000228A6095
:102A40000B6823400B60084B4B600B6823F480231A
:102A50000B60CA604FF00061016010BD08ED00E03E
:102A600000380240FFFFF6FE10300024416A11F0EA
:102A7000010F08D002685368D0F828C023F400334F
:102A800043EA0C0353608A0708D502685368D0F8FC
:102A90002CC023F4803343EA0C0353604A0708D563
:102AA00002685368D0F830C023F4802343EA0C0353
:102AB00053600A0708D502685368D0F834C023F47D
:102AC000004343EA0C035360CA0608D502689368C2
:102AD000D0F838C023F4805343EA0C0393608A068D
:102AE00008D502689368D0F83CC023F4005343EA49
:102AF0000C03936080B54A0615D5D0F800E0DEF8E7
:102B000004C0036C2CF48012B3F5801F42EA030268
:102B1000CEF8042007D1DEF80420436C22F4C00272
:102B20001A43CEF804200906BDE8804058BF70471C
:102B300001684A68806C22F40022104348607047A4
:102B4000BCB500250446C566FDF746FF0346206870
:102B5000006810F0080F0AD00A484FF40011002254
:102B60000090204600F0FEF808B1032506E0202082
:102B700084F8690084F8685084F86A00E8B202B00A
:102B8000B0BD00BFFFFFFF01B0B50446016880681B
:102B9000674DD4E90423104340EA0302E0690B685F
:102BA00002432B401A430A604A68E36822F4405209
:102BB0001A434A60A269236A1A438B6823F430637C
:102BC0001A438A605B4A914223D05B4A914226D0E5
:102BD0005A4A914229D05A4A91422CD0594A91429C
:102BE0002FD0594A914232D0584A914200F05F802A
:102BF000574A914240F06880564B574A1B6802F58D
:102C0000806283F0020303F0030343EA8303DA40A4
:102C100029E0504A0223126883EA92021CE04D4ADE
:102C20000223126883EA121216E04A4A022312684B
:102C300083EA921210E0474A0223126883EA1222C2
:102C40000AE0444A0223126883EA123204E0414A4D
:102C50000223126883EA92323F4B02F0030242EAF7
:102C6000820223FA02F2B0F5004F10D102F01F03E6
:102C700001200021082B38D8394ADFE803F0052766
:102C800030362A3636362E00FEF7F6FB23E002F009
:102C90001F020120082A88BFB0BDDFE802F0052E20
:102CA0003147344747473D00FEF7E6FB2DE0294A10
:102CB0000223126883EA9222274B02F0030242EABF
:102CC000820203F58063CCE71022CCE7FEF7DEFB3F
:102CD00001E0FEF7EBFB420001E04FF48032606858
:102CE00002EB5001B1FBF0F100204FF6F0720A4008
:102CF000C1F342010A43216817E0FEF7C7FB04E075
:102D00006068164A0BE0FEF7D1FB6268216800EBB1
:102D10005200B0FBF2F006E060684FF4004202EBB4
:102D20005002B2FBF0F082B20020CA60B0BD00BF1A
:102D3000F369FFEF0044004000480040004C0040B1
:102D40000050004000780040007C0040001401402A
:102D50000010014090380240020102000024F400FB
:102D60000048E8012DE9F843DDF820909846164622
:102D70000F46044609F101052068C1693940C91BA5
:102D8000B1FA81F14909B1421DD1002DF4D0B9F158
:102D9000000F06D0FDF720FEA0EB08004845EBD35E
:102DA0002068016821F4D0710160816821F001017F
:102DB00081602020002184F8690084F8681084F87C
:102DC0006A00032000E00020C0B201B0BDE8F0833B
:102DD000FEE7FEE77CB53248BFF34F8F002143F694
:102DE000E07CBFF36F8FC0F83C12026842F40032FF
:102DF00002602C4ABFF34F8FBFF36F8F0167BFF3A1
:102E00004F8FC16E62EAD10EC1F34E32C9088907F5
:102E10000CEA42140B46754643EA040603F14043AC
:102E20000135C0F84C62F7D1531E002A1A46EFD183
:102E3000BFF34F8F016841F480310160BFF34F8FC2
:102E4000BFF36F8FFDF7D2FDFFF78AFDFFF77CF828
:102E5000FFF70CF9FFF762F9FFF74EF8FFF794F967
:102E60005A2000210022FDF761FF5A20FDF752FF92
:102E7000FFF7CAF9FEF7D6FEF0200C494FF050429A
:102E80004FF4A07300900848FDF7A6FC084C2046BC
:102E90004FF40061FDF796FD6420FDF7BFFCF6E7F7
:102EA00014ED00E000FCFFFF20000020102F0008C0
:102EB000000C024002E008C8121F08C1002AFAD123
:102EC00070477047002001E001C1121F002AFBD1AA
:102ED0007047000000000000000001020304060724
:102EE00008090000000001020304000000000000C7
:102EF00004000000030000000200000002000000C7
:102F000002000000010000000100000002000000BB
:102F1000283A5E27395D26385E25375D25375D25E1
:102F2000375D2638602739612738632738632637AD
:102F3000632637632637652536642536642535666E
:102F40002B366E2A346F29336E28326D28306E2965
:102F5000316F2A32712A32712E337530357734371A
:102F60007C34377C35357B37377D3C3C844040862C
:102F700030347431357431347730337830307A2CE2
:102F80002B792926772622772B257D2C26802F2624
:102F9000832F268330258330258332278534298764
:102FA00035268334258231247E2E247D2D237A2CD0
:102FB00024792E247A3125793427793725773E25CF
:102FC0007945257A4B257A50247B55247D53257FDE
:102FD0005227814B247F441F7E411C7C411B804132
:102FE0001A84401B85401A873C1687401A8B411D66
:102FF0008B3F1B893817823716813A1982421B860C
:10300000531A8B531486531886591E885A20875595
:103010001B7F541C7F58208150187B50187D4E1701
:103020007F4D15824A1182460D82410A823F0782F6
:10303000480C86460A8443088041067C3F067B3F55
:1030400006773E08783F0A7637046D3704693606FE
:103050006A360767350867350865360964350A66D4
:1030600032066731076933076934086A36066A37FA
:10307000076B3A066B3D066C3E056C3F056C4203E0
:103080006C42036C45026C45026C46016C45026C57
:10309000440472430572430572430572440472444A
:1030A0000472460472460472470372470372480270
:1030B000724802724A02724A02724A02724A0272EA
:1030C0004B01704C02714F037051057253057355DB
:1030D00007755708755708755A07735A07735E07BF
:1030E000725E077260077160077161087260097231
:1030F00058026D56036D58026D58026D58036B5897
:10310000036B59026A59026A5C046A5C046A5D03D3
:10311000675D03675D01665D01665C00635C00637B
:103120005F0068600169600167610268620168634D
:1031300002696303676404686806696806696B0767
:10314000696B07696D08686E09696E0969700867BF
:103150006E05626F05616F05616F056171045F71D6
:10316000045F71045D71045D72045B72045B74043E
:103170005A74045A75035A75035A750358770358DD
:103180007C065C7D055C7C05597B04587C02577B82
:1031900001567A00537A00537E03547E0354800212
:1031A0005381035483045383045384055484055486
:1031B0008302528302528302528302528502508557
:1031C000025086024E86024E87004C87004C8800D3
:1031D0004A89014B89014B8A024C8B024A8C034974
:1031E0008D00448D00428D01408D01408F00408F45
:1031F000004090003E90003E91003D91003D9400C3
:103200003C94003C95013B96023C97023C96023C64
:1032100096023E94033E96023E96023E96023C96ED
:10322000023C97023A97023A9902399902399A0177
:10323000379A01379B01379B01379B01359B01353D
:103240009D00399E003A9E01389F0239A00139A1A4
:10325000023AA10238A20339A20135A20135A40223
:1032600034A40234A60234A70335A70335A70335D7
:10327000A80234A80234A80234A80234A80234A850
:103280000234A80234A80234A60032A60032A600F6
:1032900032A60032A60032A60032A60032A40130C7
:1032A000A60330A5042EA5042EA5042EA5042EA544
:1032B000042EA5042EA5042EA5042EA5042EA504D7
:1032C0002EA5042EA5042EA5042EA5042EA5042E9D
:1032D00027395D26385C25375D24365C23355B2431
:1032E000365C25375F2638602637622637622536FA
:1032F00062253662253664253664253664253566B2
:103300002A376E2A346F29336E28326D29316F299E
:10331000316F2A32712B33722E3375313678343750
:103320007C34377C36367C37377D3C3C8440408665
:1033300035397934387733377732357A3131792EF8
:103340002D792C297A2A267A2C267C2D277F312844
:1033500083312883312682302581302583312682AE
:1033600033268233248132257F30267F2E257E2D01
:10337000257B2E247A2F237733257A3725793E250E
:103380007945257A4B257C51257C5625805527810A
:10339000522A834C2580441F7C3F1A793D177C3F7D
:1033A0001980411A85411B883E1887401A89401AA6
:1033B000893C188438148036157E3D1983451C8657
:1033C000521C8C521687531886581D87581E8553D9
:1033D000197F51197C541C7D51197C50187D4D1654
:1033E0007E4A127F480F80450C81410A8242088143
:1033F000470B85450A8243088040057B3E05783EA1
:1034000005763D07763E097539066F39066B370735
:103410006B36076735086735086535086334096515
:1034200033076831076933076934086A37076B3730
:10343000076B3B076C3D066C3E056C3F056C410419
:103440006C42036C44026C45026C46016C45026C94
:103450004303714204714204714204714303714396
:1034600003714503714503714602714602714701BC
:103470007147017149017149017149017149017136
:1034800049006E4A006F4D016E4E026F510371523A
:1034900004725405725506735805715906725B051E
:1034A000705D06715E056F5F06705F06705E077087
:1034B00058026D56036D58026D58026D58036B58D3
:1034C000036B59026A59026A5C046A5B03695D0313
:1034D000675C02665D01665C00655C00635C0063BE
:1034E0005F00685F00686001676001676201686390
:1034F00002696303676303676503666503666703C1
:10350000656804666A05656A05656B06666D05642F
:103510006E05626F05616F05616F056171045F7112
:10352000045F71045D71045D72045B72045B74047A
:103530005A74045A75035A75035A75035877035819
:103540007B055B7C045B7B04587B04587C02577BC7
:1035500001567A00537A00537C01527D02537F0159
:1035600052800253810251820352820352830453D8
:103570008302528302528302528302528502508593
:10358000025086024E86024E86004B87004C880011
:103590004A89014B89014B8A024C8B024A8B0248B3
:1035A0008C01448D00428D01408D01408F00408F81
:1035B000004090003E90003E91003D91003D9400FF
:1035C0003C94003C95013B95013B97023C96023CA4
:1035D00094033E94033E96023E96023E96023C962B
:1035E000023C97023C97023A9800399801389900BA
:1035F000389900369A00369A00369A00349A003686
:103600009D00399D00399E01389E0138A00139A1E5
:10361000023AA10238A10238A20135A20135A30164
:1036200033A40234A60234A60234A70335A7033517
:10363000A70133A70133A70133A70133A70133A79C
:103640000133A70133A70133A60032A60032A6003A
:1036500032A60032A60032A60032A60032A4013003
:10366000A5022FA4032DA4032DA4032DA4032DA490
:10367000032DA4032DA4032DA5042EA5042EA5041B
:103680002EA5042EA5042EA5042EA5042EA5042ED9
:1036900024365C23355B22345A22345A22345C228D
:1036A000345C24356024356024356124356124354B
:1036B00063243563243563243563243465243467F7
:1036C0002A376E2A36702A346F29336E2933702ACE
:1036D00034712C34732D3574303577323779353871
:1036E0007D35387D36367C37377D3C3C843F3F85A1
:1036F0003A3E7E393D7C363A7A333679323278300A
:103700003078302D7A302D7C2E297B2F2A7E312B5C
:1037100081312B83332A833027802D247F2C217DF8
:103720003124803324813427833228813128812F2A
:10373000277D2D237A2E227833257A3725793E244A
:103740007B45247B4C257E522780562783562A832F
:10375000532B844E278048217C421B783F177A3DAB
:10376000177C401983431C87411A85411A874019E9
:10377000863D18823A157E3A177D401B82461D858C
:10378000501A89501485511684551C85551C834F39
:10379000177C4E1679521A7D511A7F4E177D4A13A7
:1037A0007B470F7C440B7C440B80440A82440A8391
:1037B00045098344098142077F40057B3E05783EE9
:1037C00005763C06753C07733B08713B086D38086D
:1037D0006C3708683508673407643407623207635A
:1037E00033076831076934086A34086A37076B3869
:1037F000086C3B076C3D066C3E056C3F056C410454
:103800006C42036C44026C44026C45026C44026CD2
:1038100043037142047142047142047143037143D2
:10382000037145037145037144006F44006F450007
:103830006F45006F47006F47006F47006F47006F8D
:1038400048006D49006E4B006C4C006D4F016F508D
:10385000027052037052037056036F56036F590380
:103860006E59036E5B046D5B046D5C056E5C056EEA
:1038700058026D56036D56036D56036D58036B5811
:10388000036B59026A59026A5B03695B03695C0254
:10389000665C02665B01655B01655B00625B006202
:1038A0005D00685D00685F006660016761026861D5
:1038B0000268630367630367610062620063640018
:1038C00062650163660161670262670262690160A5
:1038D0006D04616D04606E04606E04606E045E6E63
:1038E000045E70035C70035C71035A71035A7302C7
:1038F0005A73025A74025974025974025976015962
:103900007A045A7A045A7B035A7A02597902567910
:1039100002567B01547A00537A00507B00517D009F
:10392000507E00517F005180015280015081025130
:1039300081025181025182015182015182024F82E2
:10394000024F84014D84014D84004B84004B86005E
:103950004987014A89014B89014B8A024A8B0248F7
:103960008C01448C01428D00428D00428D01408DBE
:1039700001408F003E8F003E8F003C90003D910043
:103980003B92013C94003C95013D95013B96023CE5
:1039900094033E94024094033E94033E96023E9666
:1039A000023C97023C97023A9700389700379800FC
:1039B00037980037980035980035990035990035CB
:1039C0009B00399B00399D00399E003A9F02399F28
:1039D0000239A10238A10238A10034A20135A301A5
:1039E00033A40234A50134A60235A60234A602345B
:1039F000A70133A70133A70133A70133A70133A7D9
:103A00000133A70133A70133A60032A60032A60076
:103A100032A60032A60032A60032A60032A401303F
:103A2000A5022FA4032DA4032DA4032DA4032DA4CC
:103A3000032DA4032DA4032DA5042EA5042EA50457
:103A40002EA5042EA5042EA5042EA5042EA5042E15
:103A500021335921335920325820325820325A21EB
:103A6000335B23345F243560233460233460233494
:103A7000622435632435632435632535662535682E
:103A80002B386F2A36702A346F2A346F2A34712B00
:103A900035722E36752F377631367833387A363997
:103AA0007E36397E36367C38387E3B3B833D4085DA
:103AB0003D41813B3F7E373B7A3337773334773331
:103AC000337935337C36347F353080342F7F342F53
:103AD00083342F83362E84322A802D257B291F782C
:103AE00030237F322581332884352A86332A853056
:103AF00027802D237C2D207833237B37237A3C2489
:103B00007C43257D4A2680502783552885552A8465
:103B10005129814F29804D267F49227D451D7D42B7
:103B20001A7D421981411B82421983411A84451C26
:103B300086441E85441E85431D82431D80461C828B
:103B40004C17834B117F4D147F531A83541B824FA4
:103B5000177C4F177A531B7E511A7F4E177D4912DF
:103B60007A450D7A42097A430A7D450B83470D85D4
:103B700044098143087E42077D41067A3E05763D31
:103B800005743B06723B06703D0A713D0A6F3A0AA6
:103B90006D38096936096834076433066133066392
:103BA00034086934086A35096B36086B38086C3A92
:103BB000076C3C086D3C086D3E056C3F056C41048C
:103BC0006C42036C44026C44026C45026C44026C0F
:103BD000420270410370410370410370420270421F
:103BE000027044027044027043006E43006E440051
:103BF0006E44006E46006E46006E46006E46006ED5
:103C000049006E4A006F4C006D4D016E4F016F4FC1
:103C1000016F51026F51026F53016D54016D5401D8
:103C20006B57016C57026A58036B59026B59046C4D
:103C300055026C55026C55026C55026C57026A575E
:103C4000026A5801695801695B03695A02685C029B
:103C5000665B01655B01655A00645B00625A006146
:103C60005C00675C00675F00665F0066600167601C
:103C70000167620266620266600061610062630061
:103C800061640062650060660161660161670260EF
:103C90006B04606C035F6D035F6D035F6D035F6DAD
:103CA000035D6F025D6F025B70025B70025972010F
:103CB00059720159730158730158730158730158AF
:103CC000780459780258790158790158790256795F
:103CD00002567B01567B015479005179004F7B00DD
:103CE0004F7C004F7E00507E00507F004F7F004F82
:103CF00081025181025182015182015182024F821F
:103D0000024F84014D84014D83004A83004A86009E
:103D10004986004988004A89014B8901498902473F
:103D20008C01448C01428D00428D00428D01408DFA
:103D300001408F00408F003E8F003D8F003C90007F
:103D40003C91003B94003C94003C95013B95013D27
:103D500093013F93013F93023D93023D95013D95B1
:103D6000013D96013B96013B960037960037970040
:103D70003697003697003697003498003498003410
:103D80009A00389A00389D00399D00399E01389E6E
:103D90000138A00139A00137A10036A10034A200EA
:103DA00034A30133A50134A50134A60234A602349C
:103DB000A60032A60032A60032A60032A60032A625
:103DC0000032A60032A60032A60032A60032A600BB
:103DD00032A60032A60032A60032A60032A401307C
:103DE000A3022EA3022CA3022CA3022CA3022CA319
:103DF000022CA3022CA3022CA4032DA4032DA403A4
:103E00002DA4032DA4032DA4032DA4032DA4032D61
:103E10001F33581E32571E31591E31591F325C2034
:103E2000335D22355F23366021345F2235602234D2
:103E3000622335632436662537672537672537695A
:103E400029386F2938712A36702A36702C36732D2E
:103E500037742F3977303A7831397A333B7C363BB7
:103E60007F353A7E35387D36397E393C833D408515
:103E70003D41803A407C373D79343A783539783560
:103E80003979393A7D3A3A803D3B863A388338333E
:103E900083373282363183322D7F2D257A291F7662
:103EA00030237F332584342987352A86352A863284
:103EB000288130237D2D207833237C36227B3B22C2
:103EC0007D4124804724824B26834F2684502783BC
:103ED0004C247C50287E542C84532B844D248247C0
:103EE0001E7E441A7E431A8041167F431A824A205E
:103EF000864E268950288B4D2586471F7F461A7C83
:103F000047127C460E7949127A511A80531C81500F
:103F1000197E501A7C551F81511A7F4E177D491208
:103F20007A450D7A430B7A440B7E460D82480F8406
:103F300044097F44097D43087C4208794007783F63
:103F400007763B06723B06703E0B723D0A6F3A0ADB
:103F50006D390A6A360968350865340764330665C1
:103F600036086A36086B36086B37096C38086C3BC4
:103F7000086D3C086D3D096E3E056C3F056C4104C3
:103F80006C41046C42036C42036C44026C44026C4E
:103F900041016F40026F40026F40026F41016F416B
:103FA000016F43016F43016F43006E43006E440095
:103FB0006E44006E46006E46006E46006E46006E11
:103FC0004C02714E01714E026F4F037050027050DF
:103FD000027052037052037051006B51006B52011A
:103FE0006A53006A54016955026A57026A55026AA7
:103FF00054016B53026B54016B54016B54016954AF
:1040000001695601685601685903685903685901E6
:10401000655901655A00645900635900615900618E
:104020005A00665B00675C00655D01665F00666064
:10403000016760016560016561016361016363029D
:104040006363026366026266026267036368036118
:104050006B04606B04606C03606C035F6D035F6DE9
:10406000035D6D035D6D035B6F025B6F025B70024E
:1040700059700259720159720159720258730158EC
:1040800076015976015977015777015778005779AA
:10409000025679025679025477005077004E790023
:1040A0004F79004F7C004F7C004F7D00507D0050C9
:1040B00080015080015080015080015081014E816B
:1040C000014E83004C83004C82004983004A8300E8
:1040D0004884004986004987014A88004889024788
:1040E0008C01458C01448C01428C01428D00428D33
:1040F00001408F00408F003E8E003C8E003B8F00C1
:104100003C8F003C91003B92013C94003C94003C6D
:1041100092003E91013E92003E92003E92013C92FE
:10412000013C94003A94003A94003794003796008A
:10413000379600369700369700369700349700344C
:104140009800379900399A00389B00399D00399EB4
:1041500001389E01389E01369E00359E0033A10035
:1041600034A10034A30133A30133A40234A40234E4
:10417000A40032A40032A40032A40032A40032A46D
:104180000032A40032A40032A40032A40032A40001
:1041900032A40032A40032A40032A40032A40130C0
:1041A000A3022EA3022EA3022EA3022EA3022EA34D
:1041B000022EA3022EA3022EA4032FA4032FA403D6
:1041C0002FA4032FA4032FA4032FA4032FA4032F92
:1041D0001E32571E32571E31591E31591F325C2173
:1041E000345E2336602437612235602336612335FF
:1041F00063253765263868273969283A6A283A6C72
:1042000029386F2938712B37712B37712D37742F5F
:104210003976313B79323C7A323A7B343C7D373CDB
:1042200080363B7F35387D36397E393C833C41854D
:104230003B417F3B417D3A407C3A407C3C407D3D68
:10424000418040418241428348478B4241873B370E
:10425000813834803834813530803029792A22778A
:1042600031268232278534298734298734298532BB
:10427000278331247E31227D32217D36217C3A21F3
:104280007D3F227F4223814623814823834B248123
:104290004820764F287B552D83552D854F26824803
:1042A0001F7D461C7E471D8141177B441A7E4A2094
:1042B00082502787562A8B5327864C217D461978B2
:1042C0004714794510784713784F1B80531C815051
:1042D000197E511B7D551F8150197E4E177D4B1441
:1042E0007C48107B470F7E470E7F480F8249108322
:1042F000450A7E450B7C450B7C450B7B430B7A4185
:1043000009763D08723B066E3D0A6F3D0A6F3A0A18
:104310006D39096C370A69360966360966350867EA
:1043200036086A36086B37096C38086C3B086D3CF8
:10433000096E3D096E3F086E3E056C3E056C3F05FB
:104340006C41046C42036C42036C42036C42036C8C
:1043500040026F40026F40026F40026F41016F41A7
:10436000016F43016F43016F44006F44006F4500CC
:104370006F45006F47006F47006F47006F47006F42
:104380004F02724F02724F03704F03705002705011
:10439000027051026F51026F4F006B51006B52015E
:1043A0006A52016A53026953026955026A54036AE8
:1043B00053026B53026B54016B54016B54016954EB
:1043C0000169560168560168580267580267590129
:1043D00065580064590063590063580060580060D4
:1043E0005A00665A00665B00645C00655F00665FA9
:1043F00000666001656001656202646202646403D4
:104400006464036467036368046468046468046440
:104410006803616A035F6B025F6B025F6C015F6C34
:10442000025E6C025E6C025C6E015C6E015A6F0192
:104430005A6F015871005871005871015771015736
:1044400072005775005876005877015778005779F1
:104450000158790158790256770052780051790055
:10446000517A00507C00507D00507D00507E0051FC
:104470007F004F7F004F7F004F7F004F80004D80B7
:10448000004D82004B82004B82004982004983002C
:1044900048830048860049860049880048880146CC
:1044A0008A01458C01448C01448C01428D00428D6F
:1044B00000428F00428F00408D003D8E003C8E00F8
:1044C0003C8F003C90003C91003B93003B92013CB0
:1044D00091013E91013E92003E92003E92003E923A
:1044E000013C94003C94003A95003A9500389700BE
:1044F0003897003898003798003798003798003779
:104500009800389800389900389A00389D00399DF5
:1045100000399E003A9E01389D00369E0035A0006D
:1045200035A10034A20034A30133A30133A3013326
:10453000A30031A30031A30031A30031A30031A3B4
:104540000031A30031A30031A40032A40032A40042
:1045500032A40032A40032A40032A40032A40130FC
:10456000A2002FA2012DA2012DA2012DA2012DA298
:10457000012DA2012DA2012DA50430A50430A50412
:1045800030A50430A50430A50430A50430A50430BE
:104590001D335A1C32591C325B1D335C1E345D20A6
:1045A000365F233863243964223764223764233822
:1045B00067243968263A6C273B6D283C6E2B3C708B
:1045C0002A39702A39722938712A39722D39753091
:1045D0003C78323D7B333E7C323B7C343D7E363D05
:1045E00081353C80353A7E353A7E383C833B408489
:1045F0003B417F3B447F3D4681404984444A864558
:104600004B87474B88474B8852539348498A3E3DD6
:104610008138377D39357F37337F312D7A2D2578B5
:1046200032298233288633288633288634278333F9
:10463000268234258233248132217F36217E382020
:104640007E3B207F3E20803F207E422081441F7C95
:104650004620754B257850287E4E267E471F78448D
:104660001B77491D7E4E2284461A7C45197A461ACC
:10467000794B207C5124815225804E227B4A1B7726
:104680004A1B7B49167B4A187B501E81511D814C69
:10469000187C4C187C501C804D197E4C187D4D1692
:1046A0007E4C147F4B13804A12814B11814A10813A
:1046B000460C7D470D7D470D7D480E7C450D7A43A8
:1046C0000B763E09733D08703C096E3C096E3A0A50
:1046D0006D39096C380B6A380B6A380B68380B6A0D
:1046E00038086B38086C38086C39096D3C096E3C29
:1046F000096E3E0A6F40096F3E056C3E056C3F0532
:104700006C3F056C41046C41046C41046C41046CC9
:104710003F016E3F016E3F016E3F016E40006E40F3
:10472000006E42006E42006E460271460271470101
:104730007147017149017149017149017149017163
:104740004D00704D00704E006E4E006E4E006E4E6D
:10475000006E4E006D4D006C4F026C50016C5001AC
:104760006A51026B51036952046A54036A53056B20
:1047700050016A50016A52016A52016A520168523C
:104780000168530167530167570267560166570175
:10479000645600635700635600625600605600601E
:1047A0005900655900655A00645A00645C00655DF3
:1047B00001665D01645D016461036461036462021A
:1047C000636303646403626504636504636804648B
:1047D0006803616A02616A02616A035F6B025F6B70
:1047E000025E6B025E6B035C6C025C6C025A6E01D3
:1047F0005A6E015A6F01586F01586F015871005875
:104800007100577400577400577500587701597735
:104810000157780258780256760053770052790093
:10482000527A01517B00517C01527C01527D02522F
:104830007E014F7E014F7E014F7E014F7F004D7FF5
:10484000004D80004B80004B800048810049820071
:104850004783004883004884004986004787004515
:104860008A01458A02448A02448A02448C01448CAB
:1048700001428D00428D01408C003D8C003B8E003A
:104880003C8E003B8F003C8F003C91003D91003DF1
:1048900090003E8F003E90003E90003D90003D9085
:1048A000003B91003B91003995013B95013B9601FE
:1048B00039960139980039980138980138980138AB
:1048C0009700379700379800389800389A00399B3E
:1048D00000399B00399B01379C00369C00349E00B8
:1048E000359E0033A10034A10034A20135A201336A
:1048F000A10030A1002EA1002EA1002EA1002EA10A
:10490000002EA1002EA1002EA30130A30130A3018F
:1049100030A30130A30130A30130A30130A3013043
:10492000A1002EA1002EA1002EA1002EA1002EA1DB
:10493000002EA1002EA1002EA50332A50332A5034F
:1049400032A50332A50332A50332A50332A50332F3
:104950001D335A1D335A1D335C1E345D1F355E21D5
:104960003760243964253A65223764233865243951
:1049700068263B6A273B6D293D6F2A3E702A3E71AF
:10498000293A702A39722A39722A39722E3A7630C7
:104990003C78323D7B343F7D333C7D353E7F373E36
:1049A00082353C80353A7E353A7E383C83394084C6
:1049B0003A42813D4583414A85464F8A4B518B4C53
:1049C000528C4D528A4D528A585A954C4E8B3F3FCD
:1049D0007F38377939367D38347E332F7B2D2878F0
:1049E000342B84332A85332884312682332682333C
:1049F000268235268336258335218036218038204E
:104A00007E39207E3A1F7E3C1E7E3C1E7E3F1D7BF3
:104A10004421754924744A2479441E733E17703F1B
:104A20001672481F7D532788491D7E451978421507
:104A300072431671491D764E22794F22774D1F77AA
:104A400050217F4B1C7C4B1C7C5020834E1E814987
:104A5000177A4715784C187C4C187D4D197E4F18E5
:104A6000804F18804E16814D15824C12804B117F5D
:104A7000470D7B480E7C490F7D49107B470F7A44D8
:104A80000D753F0A723E0A6F3B086D3B086D390990
:104A90006C39096C390C6B390C6B390C69390C6B3E
:104AA00038086B38086C3B086D3B086D3C096E3D5F
:104AB000096E40096F40096F3E056C3E056C3F056D
:104AC0006C3F056C41046C41046C41046C41046C06
:104AD0003F016E3F016E3F016E3F016E40006E4030
:104AE000006E42006E42006E470372470372480236
:104AF000724802724A02724A02724A02724B017290
:104B00004B006E4B006E4C006C4C006C4B006B4BC2
:104B1000006B4B006A4B006A4F026C4F026C5003F3
:104B20006B50036B52046A51056A52066B52066B56
:104B300050016A50016A52016A52016A5201685278
:104B400001685301675301675601665601665701B4
:104B50006456006357006356006256006055005F5C
:104B60005900655900655A00645A00645C00655C30
:104B700000655D01645D01645F0162600263610163
:104B800062620263630261640362640362640362DB
:104B90006702606901606901606901606A01606AB9
:104BA000015E6A015E6A015D6B015D6B015B6D0018
:104BB0005B6D00596E00596E00576E00576E0057BE
:104BC0007100577300577400587500587701597772
:104BD000015978025A7802587700567700547A00C3
:104BE000557B01547C00547D02537D02537D02535A
:104BF0007E00517E014F7E014F7E014F7F004D7F31
:104C0000004D80004B80004B8000488000488200AF
:104C10004782004783004884004986004786004752
:104C20008902478A01458A01458A02448C01448CE5
:104C300001448D00448D00428C003F8C003D8D006E
:104C40003D8E003C8F003D8F003C91003D90003D2B
:104C50008F003E8F003E90003E90003E90003E90C0
:104C6000003D91003D91003B96023E96023C97022A
:104C70003C97023A99013A99013A99013A99013AD5
:104C800097003997003998003A9800389A00399A75
:104C900000399B003A9B00399C00389C00369D00EF
:104CA000369E0035A00035A10034A10034A20133A6
:104CB000A10030A1002EA1002EA1002EA1002EA146
:104CC000002EA1002EA1002EA30130A30130A301CC
:104CD00030A30130A30130A30130A30130A3013080
:104CE000A1002EA1002EA1002EA1002EA1002EA118
:104CF000002EA1002EA1002EA50332A50332A5038C
:104D000032A50332A50332A50332A50332A503322F
:104D10001B315A1C325B1E335E2035602237622203
:104D20003762223764223764213665223766243899
:104D30006A273B6D283C6F293D70293D70293D70E5
:104D400028396F293A722A3B732B3C742D3C772EFD
:104D50003D78313C7A313C7A323D7D323D7D333C89
:104D60007F343D80353C80363D81363D83373E8201
:104D70003B438438428038427F3D4782454E8749D5
:104D800052894A5187464D83484D854A4F87474946
:104D9000863D3E7E3A397D3B3A8039378233307FDB
:104DA0003530842C267E2D247D362C853A2D873275
:104DB000257F2F207B34237F311E7A331E7B371FC4
:104DC0007D38207E391F80391F80381E7F3A1D793B
:104DD00042227545227247247849267A49257D4921
:104DE000227D47207D471E7C481C7B471B7A481B41
:104DF000764B1F7850227A52257A5023764E2176B0
:104E000051257E4F227F4B1E7B471A7945177946E5
:104E1000167946167A49167B4C177F4A157D4A1338
:104E20007B481179480F7849107B4B127D4C137EDB
:104E30004C137E4C137E4C137E4B127B49127A47E7
:104E40001076420E73410D723B086D3B096C3A0AB5
:104E50006D3A0A6D3A0D6C3B0E6D3C0F6E3D0E6E59
:104E60003D0B6E3D0A6F3D096E3D096E3C086D3B82
:104E7000076C3D066C3D066C41086F41086F4007AA
:104E80006E40076E40066D40066D3F056C3F056C39
:104E90004204714103703F016E3E006D3F006D3F63
:104EA000006D41006D42006E41006C42006D430098
:104EB0006D44006E46006E47006F47006F490070FA
:104EC0004E01714F01714F016F4F016F4F016F4FD5
:104ED000016F4E026E4E026E51066F51066F510603
:104EE0006D50056C51056A4F04694F04694E0368A3
:104EF0004E01694E01694F006950016A50026851C4
:104F000003695302685403695301655301655501F0
:104F10006355016356006356006356006156006195
:104F20005901675901675A02665A02665D03675D57
:104F300003675F03665F03665D02625E0363600290
:104F40006261036362036163046263046265046314
:104F50006601616601616702626702606A02616BF5
:104F600004606C03606C035F6B025E6B035C6C023D
:104F70005C6D035B70035C70035C71045D72045DC7
:104F800073005B74025A74025A75035B77025B7894
:104F9000035B79035B7903597802587802567A03E8
:104FA000577A03557D03567D03567E04577E05557B
:104FB0007C01517C024F7D03507D035080034F8064
:104FC000034F82044E82044E83034D83034D8503B9
:104FD0004B85034B85034B85034B86034988024968
:104FE0008700458700438700438700438800438844
:104FF00000428A00428A00408B00408C003F8E00B5
:105000003F8F003E8F003E90013F91013F92024052
:105010009102428F034292034392034193044293CD
:10502000054195054295054091003B91003994005A
:105030003A94003A96013B97023A97023A97023A1D
:1050400096003996003997003A97003A99003B9AB2
:10505000013A9B003A9B00399B00399B01379D0028
:10506000379D00359E00359E00359E0035A00033EB
:10507000A10030A1002EA1002EA1002EA1002EA182
:10508000002EA1002EA1002EA30130A30130A30108
:1050900030A30130A30130A30130A30130A30130BC
:1050A000A30132A30132A30132A30132A30132A32F
:1050B0000132A30132A30132A50334A50334A503B1
:1050C00034A50334A40233A40233A40233A402336C
:1050D0001A30591B315A1D325D1F345F213661224F
:1050E00037622237642237642136652338672539D1
:1050F0006B273B6D283C6F293D70293D70293D721F
:10510000283971293A722A3B732B3C742D3C772E37
:105110003D78313C7A323D7B323D7D323D7D343DC0
:1051200080343D80363D81363D81373E84373E8434
:105130003942853841823943813E4885464F884A05
:10514000538A4B52884950844C51884E538A4B4D58
:10515000884142823D3C7E3E3D833C3A85363380E9
:105160003530822D287C2E267B362C82392D8333B8
:10517000257C31217A35227C331E79331E79351D09
:105180007B351D7B341F7C341F7C341F7E361F799A
:105190003D207441227243237645257A46247B457F
:1051A000227C45207D461F7C481F7D461B77431887
:1051B00072451972491D724E21744F22734E237528
:1051C0004F257B4B237C471F78461B774418774538
:1051D000177945177A46167A4A177E4A157D4A137B
:1051E0007B481179480F784910794A11784B127928
:1051F0004B12794B12794C137C4B12794912784639
:105200000F75420E73410D723B096C3B096C3A0AF3
:105210006D3B0B6E3B0E6D3B0E6D3C0F6E3D0D708E
:105220003D0A6F3E0A6F3D096E3D096E3C086D3CBC
:10523000086D3D066C3D066C41086F41086F4007E4
:105240006E40076E3F066D3E056C3F056C3F056C7A
:105250004204714103703F016E3E006D3F006D3F9F
:10526000006D41006D42006E42006D42006D4300D2
:105270006D44006E47006F47006F48007049007032
:105280004E01714F01714F016F4F016F4F016F4F11
:10529000016F4E026E4E026E50056E50056E4F0449
:1052A0006B4D056B4C04684C04684B03674B0367FC
:1052B0004C01684E01694F006950016A5002685103
:1052C0000369530268530268530165530165550130
:1052D00063550163560063560063560061560061D2
:1052E0005901675901675901655A02665C02665D9A
:1052F00003675E02655F03665D02625D02626002D3
:105300006260026262036163046263046264036256
:105310006501616601616601616702626A02616A34
:1053200002616C03626C03606A015E6B025E6C0278
:105330005E6D035D6F025D70035C70035C72045D03
:1053400072015B73005B74015C74025A77025B77D5
:10535000025B79035B79035B78025A780258790122
:10536000587A03577D03587D03567E04577E0555B2
:105370007C01517C024F7C024F7D035080034F80A3
:10538000034F82044E82044E83034D83034D8503F5
:105390004B85034B85034B85034B860349860349A5
:1053A000860045870045870045870043880043887D
:1053B00000438A00428A00428B00428C00418E00EA
:1053C000418F00408F004090013F91013F9102408A
:1053D0008F03428F0342910242920343920343930D
:1053E000044294044295054291003D91003B940093
:1053F0003C94003A96013B97023C97023C97023C52
:1054000096003B96003B97003C97003A99003B9AE8
:10541000003C9B003A9B003A9B003A9B00399D0060
:10542000399D00379E00379E00359E00359E003323
:10543000A00030A1002EA1002EA1002EA1002EA1BF
:10544000002EA1002EA1002EA30130A30130A30144
:1054500030A30130A30130A30130A30130A30130F8
:10546000A30132A30132A30132A30132A30132A36B
:105470000132A30132A30132A50334A50334A503ED
:1054800034A50334A40233A40233A40233A40233A8
:10549000172E58182F591B325E1E35612037632195
:1054A000386422386722386722386923396A253BF5
:1054B0006D263C6E283D72283D72283D72273C7156
:1054C000273A72273A72283B73293C742D3D782E77
:1054D0003E79303E7B303E7B323D7D333E7E333EF7
:1054E00080343F81353E81363F82373E84373E846B
:1054F0003941893741863A43863E4886454F8A4935
:10550000548A4B558A4B55884F568A51588E4E5364
:105510008D4347844041844141873E3E88383783EC
:10552000353281302B7B302979362D7E392D8135EE
:10553000277C34217A36227B35217A361F79321D39
:1055400078301B762F1C76311E7831207C34217AFE
:10555000381F733B1F733D21753E227740227A42EC
:10556000217C43207C421F7D46217E431C773F17D0
:10557000703F146D43196D491E704D22724D247396
:105580004A2376482277451F76441C754219774393
:10559000177844167945157B49167F49147E4912C0
:1055A0007A481179480F764910774A10764B11776F
:1055B0004A12774A12774B12794A12774811764687
:1055C0000F74420E72410D713C0A6D3C0A6D3B0B2B
:1055D0006E3B0B6E3B0D6F3B0D6F3C0E703D0D70C7
:1055E0003F0B7040096F40096F3F086E3F086E3EE9
:1055F000076D3E076D3D066C40096F40096F3F081F
:105600006E3F086E3E076D3D066C3E056C3E056CB8
:105610004005714103703F016E3E006D3F006D3FDC
:10562000006D41006D42006E42006D42006D44000D
:105630006E44006E47006F4800704800704900706B
:105640004E00704F00704E006E4E006E4E006E4E5B
:10565000006E4D016D4D016D4C036C4C036C4B03A2
:10566000694A036949036649036648026548026559
:105670004C01684C01684D00684E01695002685049
:10568000026851036851036851016451016452007A
:105690006252006254006254006254006054006020
:1056A0005701665701665802655802655A02665AE4
:1056B00002665D03655D03655D02625D02625D0217
:1056C000615E03626103616103616304626403629A
:1056D0006400626501636501616602626702626877
:1056E00003616A02616A035F6A015E6A015D6B02BF
:1056F0005E6B035C6D035D6D035D70035E71025E46
:1057000072015D72015B72015B73025C74025A7517
:10571000035B77025B78035B770159770157780267
:10572000587802567A03577B04587D03587D0356F8
:105730007A01507A014E7B024F7B024F7D034E7EF1
:10574000044F80044D80044D81034C81034C82033F
:105750004A82034A82034A82034A840248850248F5
:1057600086004786004586004586004587004387BA
:1057700000438800438800428A00428B00418C002D
:10578000418D01408D01408E0241900141910242C4
:105790008E01438D02438F02448F03429203439252
:1057A000034193044293054190003D90003B9201D8
:1057B0003C92013C95013D96023C96023C96023C8F
:1057C00094003B94003B95003C95003C98003B992D
:1057D000013C9A003C9A013A9B003A9B00399B009D
:1057E000399B01379D00379D00379E00379E00355D
:1057F000A00031A00030A00030A00030A00030A0F8
:105800000030A00030A00030A20232A20232A20278
:1058100032A20232A20232A20232A20232A2023228
:10582000A30133A30133A30133A30133A30133A3A2
:105830000133A30133A30133A40234A40234A4022C
:1058400034A40234A50335A50335A50335A50335D6
:10585000172E58182F591B325E1E356120376322D0
:10586000396522386722386723396A243A6B263C27
:105870006E273D6F283D72283D72283D72273C718E
:10588000283B73283B73293C742A3D752D3D782EA7
:105890003E79303E7B313F7C333E7E333E7E343F2B
:1058A00081343F81363F82363F82383F85373F879C
:1058B00038428A38428A3B438B3E4788434D8A4868
:1058C000538B4C568B4D578A50578B52598F4F5490
:1058D0008C45498642438642428A403F8B3A39850D
:1058E00037358033317C322E7A372F7C3A2F7E3910
:1058F0002A7B37257936227739227A372078311D6D
:10590000742D1A732B1B732C1E752F217932227A5A
:10591000321E73351D71371F753820763C1F793D57
:10592000207C3E1F7C401E7C44217F411C793F1817
:1059300073401870441D70491F714A21704A2170CC
:10594000462171432072421F73421B74411A7541F4
:10595000187842167843147A45147D47147D49120D
:105960007A481179491077481075490F73490F73B8
:105970004911744911744A12774A127548117646D2
:105980000F74430F73410D713E0C6F3E0C6F3C0C56
:105990006F3C0C6F3B0D6F3C0E703C0E703D0D70FC
:1059A0003F0B70410A70410A7040096F3F086E3F1B
:1059B000086E3E076D3E076D40096F40096F3F0856
:1059C0006E3F086E3E076D3D066C3D066C3E056CF5
:1059D0004005714103703F016E3E006D3E006C3F1B
:1059E000006D41006D42006E43006E43006E450045
:1059F0006F45006F4800704800704901714A00719E
:105A00004E00704F00704E006E4E006E4E006E4E97
:105A1000006E4D016D4B026D4A016A49026A4902EE
:105A200068460267460265450164450164440063B7
:105A30004901674B00674D00684D00684F01675092
:105A400002685002675002675101645101645200BC
:105A5000625200625400625400625400605400605C
:105A60005600655701665701645802655901655A29
:105A700002665C02645D03655C01615C01615D025C
:105A8000615D0261600260600260620361620361E5
:105A900062016264006264006065016167026267BE
:105AA00002626A02616A026169005F6A015E6A01FC
:105AB0005E6B025E6C025E6D035D6F025D6F025D88
:105AC0006F005C71005C72015B72015B74015C745D
:105AD000025A77025B77025B7701597701597701A8
